{
  "contractName": "Funoken",
  "abi": [
    {
      "inputs": [],
      "stateMutability": "nonpayable",
      "type": "constructor"
    },
    {
      "anonymous": false,
      "inputs": [
        {
          "indexed": true,
          "internalType": "address",
          "name": "owner",
          "type": "address"
        },
        {
          "indexed": true,
          "internalType": "address",
          "name": "approved",
          "type": "address"
        },
        {
          "indexed": true,
          "internalType": "uint256",
          "name": "tokenId",
          "type": "uint256"
        }
      ],
      "name": "Approval",
      "type": "event"
    },
    {
      "anonymous": false,
      "inputs": [
        {
          "indexed": true,
          "internalType": "address",
          "name": "owner",
          "type": "address"
        },
        {
          "indexed": true,
          "internalType": "address",
          "name": "operator",
          "type": "address"
        },
        {
          "indexed": false,
          "internalType": "bool",
          "name": "approved",
          "type": "bool"
        }
      ],
      "name": "ApprovalForAll",
      "type": "event"
    },
    {
      "anonymous": false,
      "inputs": [
        {
          "indexed": true,
          "internalType": "address",
          "name": "from",
          "type": "address"
        },
        {
          "indexed": true,
          "internalType": "address",
          "name": "to",
          "type": "address"
        },
        {
          "indexed": true,
          "internalType": "uint256",
          "name": "tokenId",
          "type": "uint256"
        }
      ],
      "name": "Transfer",
      "type": "event"
    },
    {
      "inputs": [
        {
          "internalType": "address",
          "name": "to",
          "type": "address"
        },
        {
          "internalType": "uint256",
          "name": "tokenId",
          "type": "uint256"
        }
      ],
      "name": "approve",
      "outputs": [],
      "stateMutability": "nonpayable",
      "type": "function"
    },
    {
      "inputs": [
        {
          "internalType": "address",
          "name": "owner",
          "type": "address"
        }
      ],
      "name": "balanceOf",
      "outputs": [
        {
          "internalType": "uint256",
          "name": "",
          "type": "uint256"
        }
      ],
      "stateMutability": "view",
      "type": "function"
    },
    {
      "inputs": [
        {
          "internalType": "uint256",
          "name": "tokenId",
          "type": "uint256"
        }
      ],
      "name": "getApproved",
      "outputs": [
        {
          "internalType": "address",
          "name": "",
          "type": "address"
        }
      ],
      "stateMutability": "view",
      "type": "function"
    },
    {
      "inputs": [
        {
          "internalType": "address",
          "name": "owner",
          "type": "address"
        },
        {
          "internalType": "address",
          "name": "operator",
          "type": "address"
        }
      ],
      "name": "isApprovedForAll",
      "outputs": [
        {
          "internalType": "bool",
          "name": "",
          "type": "bool"
        }
      ],
      "stateMutability": "view",
      "type": "function"
    },
    {
      "inputs": [],
      "name": "name",
      "outputs": [
        {
          "internalType": "string",
          "name": "",
          "type": "string"
        }
      ],
      "stateMutability": "view",
      "type": "function"
    },
    {
      "inputs": [
        {
          "internalType": "uint256",
          "name": "tokenId",
          "type": "uint256"
        }
      ],
      "name": "ownerOf",
      "outputs": [
        {
          "internalType": "address",
          "name": "",
          "type": "address"
        }
      ],
      "stateMutability": "view",
      "type": "function"
    },
    {
      "inputs": [
        {
          "internalType": "address",
          "name": "from",
          "type": "address"
        },
        {
          "internalType": "address",
          "name": "to",
          "type": "address"
        },
        {
          "internalType": "uint256",
          "name": "tokenId",
          "type": "uint256"
        }
      ],
      "name": "safeTransferFrom",
      "outputs": [],
      "stateMutability": "nonpayable",
      "type": "function"
    },
    {
      "inputs": [
        {
          "internalType": "address",
          "name": "from",
          "type": "address"
        },
        {
          "internalType": "address",
          "name": "to",
          "type": "address"
        },
        {
          "internalType": "uint256",
          "name": "tokenId",
          "type": "uint256"
        },
        {
          "internalType": "bytes",
          "name": "_data",
          "type": "bytes"
        }
      ],
      "name": "safeTransferFrom",
      "outputs": [],
      "stateMutability": "nonpayable",
      "type": "function"
    },
    {
      "inputs": [
        {
          "internalType": "address",
          "name": "operator",
          "type": "address"
        },
        {
          "internalType": "bool",
          "name": "approved",
          "type": "bool"
        }
      ],
      "name": "setApprovalForAll",
      "outputs": [],
      "stateMutability": "nonpayable",
      "type": "function"
    },
    {
      "inputs": [
        {
          "internalType": "bytes4",
          "name": "interfaceId",
          "type": "bytes4"
        }
      ],
      "name": "supportsInterface",
      "outputs": [
        {
          "internalType": "bool",
          "name": "",
          "type": "bool"
        }
      ],
      "stateMutability": "view",
      "type": "function"
    },
    {
      "inputs": [],
      "name": "symbol",
      "outputs": [
        {
          "internalType": "string",
          "name": "",
          "type": "string"
        }
      ],
      "stateMutability": "view",
      "type": "function"
    },
    {
      "inputs": [
        {
          "internalType": "uint256",
          "name": "tokenId",
          "type": "uint256"
        }
      ],
      "name": "tokenURI",
      "outputs": [
        {
          "internalType": "string",
          "name": "",
          "type": "string"
        }
      ],
      "stateMutability": "view",
      "type": "function"
    },
    {
      "inputs": [
        {
          "internalType": "address",
          "name": "from",
          "type": "address"
        },
        {
          "internalType": "address",
          "name": "to",
          "type": "address"
        },
        {
          "internalType": "uint256",
          "name": "tokenId",
          "type": "uint256"
        }
      ],
      "name": "transferFrom",
      "outputs": [],
      "stateMutability": "nonpayable",
      "type": "function"
    },
    {
      "inputs": [
        {
          "internalType": "address",
          "name": "recipient",
          "type": "address"
        },
        {
          "internalType": "string",
          "name": "tokenURI",
          "type": "string"
        }
      ],
      "name": "mintToken",
      "outputs": [
        {
          "internalType": "uint256",
          "name": "",
          "type": "uint256"
        }
      ],
      "stateMutability": "nonpayable",
      "type": "function"
    },
    {
      "inputs": [
        {
          "internalType": "uint256",
          "name": "itemId",
          "type": "uint256"
        },
        {
          "internalType": "uint256",
          "name": "amount",
          "type": "uint256"
        }
      ],
      "name": "auction",
      "outputs": [],
      "stateMutability": "nonpayable",
      "type": "function"
    },
    {
      "inputs": [
        {
          "internalType": "uint256",
          "name": "itemId",
          "type": "uint256"
        }
      ],
      "name": "bid",
      "outputs": [],
      "stateMutability": "payable",
      "type": "function"
    },
    {
      "inputs": [
        {
          "internalType": "uint256",
          "name": "itemId",
          "type": "uint256"
        }
      ],
      "name": "endAuction",
      "outputs": [],
      "stateMutability": "nonpayable",
      "type": "function"
    }
  ],
  "bytecode": "0x60806040523480156200001157600080fd5b506040518060400160405280600781526020017f46756e6f6b656e000000000000000000000000000000000000000000000000008152506040518060400160405280600381526020017f46544b0000000000000000000000000000000000000000000000000000000000815250816000908051906020019062000096929190620000b8565b508060019080519060200190620000af929190620000b8565b505050620001cd565b828054620000c69062000197565b90600052602060002090601f016020900481019282620000ea576000855562000136565b82601f106200010557805160ff191683800117855562000136565b8280016001018555821562000136579182015b828111156200013557825182559160200191906001019062000118565b5b50905062000145919062000149565b5090565b5b80821115620001645760008160009055506001016200014a565b5090565b7f4e487b7100000000000000000000000000000000000000000000000000000000600052602260045260246000fd5b60006002820490506001821680620001b057607f821691505b60208210811415620001c757620001c662000168565b5b50919050565b6134d880620001dd6000396000f3fe6080604052600436106100fe5760003560e01c80636352211e11610095578063a22cb46511610064578063a22cb4651461034a578063b88d4fde14610373578063b9a2de3a1461039c578063c87b56dd146103c5578063e985e9c514610402576100fe565b80636352211e1461027c57806370a08231146102b95780638ea14bfe146102f657806395d89b411461031f576100fe565b806323b872dd116100d157806323b872dd146101d15780633d02d0c9146101fa57806342842e0e14610237578063454a2ab314610260576100fe565b806301ffc9a71461010357806306fdde0314610140578063081812fc1461016b578063095ea7b3146101a8575b600080fd5b34801561010f57600080fd5b5061012a60048036038101906101259190612122565b61043f565b604051610137919061216a565b60405180910390f35b34801561014c57600080fd5b50610155610521565b604051610162919061221e565b60405180910390f35b34801561017757600080fd5b50610192600480360381019061018d9190612276565b6105b3565b60405161019f91906122e4565b60405180910390f35b3480156101b457600080fd5b506101cf60048036038101906101ca919061232b565b610638565b005b3480156101dd57600080fd5b506101f860048036038101906101f3919061236b565b610750565b005b34801561020657600080fd5b50610221600480360381019061021c91906124f3565b6107b0565b60405161022e919061255e565b60405180910390f35b34801561024357600080fd5b5061025e6004803603810190610259919061236b565b6109bb565b005b61027a60048036038101906102759190612276565b6109db565b005b34801561028857600080fd5b506102a3600480360381019061029e9190612276565b610c02565b6040516102b091906122e4565b60405180910390f35b3480156102c557600080fd5b506102e060048036038101906102db9190612579565b610cb4565b6040516102ed919061255e565b60405180910390f35b34801561030257600080fd5b5061031d600480360381019061031891906125a6565b610d6c565b005b34801561032b57600080fd5b50610334610e17565b604051610341919061221e565b60405180910390f35b34801561035657600080fd5b50610371600480360381019061036c9190612612565b610ea9565b005b34801561037f57600080fd5b5061039a600480360381019061039591906126f3565b61102a565b005b3480156103a857600080fd5b506103c360048036038101906103be9190612276565b61108c565b005b3480156103d157600080fd5b506103ec60048036038101906103e79190612276565b6112cc565b6040516103f9919061221e565b60405180910390f35b34801561040e57600080fd5b5061042960048036038101906104249190612776565b61141e565b604051610436919061216a565b60405180910390f35b60007f80ac58cd000000000000000000000000000000000000000000000000000000007bffffffffffffffffffffffffffffffffffffffffffffffffffffffff1916827bffffffffffffffffffffffffffffffffffffffffffffffffffffffff1916148061050a57507f5b5e139f000000000000000000000000000000000000000000000000000000007bffffffffffffffffffffffffffffffffffffffffffffffffffffffff1916827bffffffffffffffffffffffffffffffffffffffffffffffffffffffff1916145b8061051a5750610519826114b2565b5b9050919050565b606060008054610530906127e5565b80601f016020809104026020016040519081016040528092919081815260200182805461055c906127e5565b80156105a95780601f1061057e576101008083540402835291602001916105a9565b820191906000526020600020905b81548152906001019060200180831161058c57829003601f168201915b5050505050905090565b60006105be8261151c565b6105fd576040517f08c379a00000000000000000000000000000000000000000000000000000000081526004016105f490612889565b60405180910390fd5b6004600083815260200190815260200160002060009054906101000a900473ffffffffffffffffffffffffffffffffffffffff169050919050565b600061064382610c02565b90508073ffffffffffffffffffffffffffffffffffffffff168373ffffffffffffffffffffffffffffffffffffffff1614156106b4576040517f08c379a00000000000000000000000000000000000000000000000000000000081526004016106ab9061291b565b60405180910390fd5b8073ffffffffffffffffffffffffffffffffffffffff166106d3611588565b73ffffffffffffffffffffffffffffffffffffffff1614806107025750610701816106fc611588565b61141e565b5b610741576040517f08c379a0000000000000000000000000000000000000000000000000000000008152600401610738906129ad565b60405180910390fd5b61074b8383611590565b505050565b61076161075b611588565b82611649565b6107a0576040517f08c379a000000000000000000000000000000000000000000000000000000000815260040161079790612a3f565b60405180910390fd5b6107ab838383611727565b505050565b60006107bc6007611983565b60006107c86007611999565b90506107d484826119a7565b6107de8184611b75565b6040518060a0016040528060001515815260200160001515815260200160008152602001600073ffffffffffffffffffffffffffffffffffffffff1681526020016000815250600860008201518160000160006101000a81548160ff02191690831515021790555060208201518160000160016101000a81548160ff0219169083151502179055506040820151816001015560608201518160020160006101000a81548173ffffffffffffffffffffffffffffffffffffffff021916908373ffffffffffffffffffffffffffffffffffffffff160217905550608082015181600301559050506008600c60008381526020019081526020016000206000820160009054906101000a900460ff168160000160006101000a81548160ff0219169083151502179055506000820160019054906101000a900460ff168160000160016101000a81548160ff021916908315150217905550600182015481600101556002820160009054906101000a900473ffffffffffffffffffffffffffffffffffffffff168160020160006101000a81548173ffffffffffffffffffffffffffffffffffffffff021916908373ffffffffffffffffffffffffffffffffffffffff160217905550600382015481600301559050508091505092915050565b6109d68383836040518060200160405280600081525061102a565b505050565b80600c600082815260200190815260200160002060000160009054906101000a900460ff16610a0957600080fd5b600c6000838152602001908152602001600020600101543411610a61576040517f08c379a0000000000000000000000000000000000000000000000000000000008152600401610a5890612aab565b60405180910390fd5b610a6a82610c02565b73ffffffffffffffffffffffffffffffffffffffff163373ffffffffffffffffffffffffffffffffffffffff161415610aa257600080fd5b600c600083815260200190815260200160002060000160019054906101000a900460ff1615610b5f57600c600083815260200190815260200160002060020160009054906101000a900473ffffffffffffffffffffffffffffffffffffffff1673ffffffffffffffffffffffffffffffffffffffff166108fc600c6000858152602001908152602001600020600101549081150290604051600060405180830381858888f19350505050158015610b5d573d6000803e3d6000fd5b505b34600c60008481526020019081526020016000206001018190555033600c600084815260200190815260200160002060020160006101000a81548173ffffffffffffffffffffffffffffffffffffffff021916908373ffffffffffffffffffffffffffffffffffffffff1602179055506001600c600084815260200190815260200160002060000160016101000a81548160ff0219169083151502179055505050565b6000806002600084815260200190815260200160002060009054906101000a900473ffffffffffffffffffffffffffffffffffffffff169050600073ffffffffffffffffffffffffffffffffffffffff168173ffffffffffffffffffffffffffffffffffffffff161415610cab576040517f08c379a0000000000000000000000000000000000000000000000000000000008152600401610ca290612b3d565b60405180910390fd5b80915050919050565b60008073ffffffffffffffffffffffffffffffffffffffff168273ffffffffffffffffffffffffffffffffffffffff161415610d25576040517f08c379a0000000000000000000000000000000000000000000000000000000008152600401610d1c90612bcf565b60405180910390fd5b600360008373ffffffffffffffffffffffffffffffffffffffff1673ffffffffffffffffffffffffffffffffffffffff168152602001908152602001600020549050919050565b81610d7681610c02565b73ffffffffffffffffffffffffffffffffffffffff163373ffffffffffffffffffffffffffffffffffffffff1614610dad57600080fd5b6001600c600085815260200190815260200160002060000160006101000a81548160ff02191690831515021790555081600c60008581526020019081526020016000206001018190555042600c600085815260200190815260200160002060030181905550505050565b606060018054610e26906127e5565b80601f0160208091040260200160405190810160405280929190818152602001828054610e52906127e5565b8015610e9f5780601f10610e7457610100808354040283529160200191610e9f565b820191906000526020600020905b815481529060010190602001808311610e8257829003601f168201915b5050505050905090565b610eb1611588565b73ffffffffffffffffffffffffffffffffffffffff168273ffffffffffffffffffffffffffffffffffffffff161415610f1f576040517f08c379a0000000000000000000000000000000000000000000000000000000008152600401610f1690612c3b565b60405180910390fd5b8060056000610f2c611588565b73ffffffffffffffffffffffffffffffffffffffff1673ffffffffffffffffffffffffffffffffffffffff16815260200190815260200160002060008473ffffffffffffffffffffffffffffffffffffffff1673ffffffffffffffffffffffffffffffffffffffff16815260200190815260200160002060006101000a81548160ff0219169083151502179055508173ffffffffffffffffffffffffffffffffffffffff16610fd9611588565b73ffffffffffffffffffffffffffffffffffffffff167f17307eab39ab6107e8899845ad3d59bd9653f200f220920489ca2b5937696c318360405161101e919061216a565b60405180910390a35050565b61103b611035611588565b83611649565b61107a576040517f08c379a000000000000000000000000000000000000000000000000000000000815260040161107190612a3f565b60405180910390fd5b61108684848484611be9565b50505050565b80600c600082815260200190815260200160002060000160009054906101000a900460ff166110ba57600080fd5b62015180600c6000848152602001908152602001600020600301546110df9190612c8a565b4211611120576040517f08c379a000000000000000000000000000000000000000000000000000000000815260040161111790612d2c565b60405180910390fd5b600c600083815260200190815260200160002060000160019054906101000a900460ff16156111f85761115282610c02565b73ffffffffffffffffffffffffffffffffffffffff166108fc600c6000858152602001908152602001600020600101549081150290604051600060405180830381858888f193505050501580156111ad573d6000803e3d6000fd5b506111f76111ba83610c02565b600c600085815260200190815260200160002060020160009054906101000a900473ffffffffffffffffffffffffffffffffffffffff1684610750565b5b6000600c600084815260200190815260200160002060000160006101000a81548160ff0219169083151502179055506000600c600084815260200190815260200160002060000160016101000a81548160ff0219169083151502179055506000600c6000848152602001908152602001600020600101819055506000600c600084815260200190815260200160002060020160006101000a81548173ffffffffffffffffffffffffffffffffffffffff021916908373ffffffffffffffffffffffffffffffffffffffff1602179055505050565b60606112d78261151c565b611316576040517f08c379a000000000000000000000000000000000000000000000000000000000815260040161130d90612dbe565b60405180910390fd5b6000600660008481526020019081526020016000208054611336906127e5565b80601f0160208091040260200160405190810160405280929190818152602001828054611362906127e5565b80156113af5780601f10611384576101008083540402835291602001916113af565b820191906000526020600020905b81548152906001019060200180831161139257829003601f168201915b5050505050905060006113c0611c45565b90506000815114156113d6578192505050611419565b60008251111561140b5780826040516020016113f3929190612e1a565b60405160208183030381529060405292505050611419565b61141484611c5c565b925050505b919050565b6000600560008473ffffffffffffffffffffffffffffffffffffffff1673ffffffffffffffffffffffffffffffffffffffff16815260200190815260200160002060008373ffffffffffffffffffffffffffffffffffffffff1673ffffffffffffffffffffffffffffffffffffffff16815260200190815260200160002060009054906101000a900460ff16905092915050565b60007f01ffc9a7000000000000000000000000000000000000000000000000000000007bffffffffffffffffffffffffffffffffffffffffffffffffffffffff1916827bffffffffffffffffffffffffffffffffffffffffffffffffffffffff1916149050919050565b60008073ffffffffffffffffffffffffffffffffffffffff166002600084815260200190815260200160002060009054906101000a900473ffffffffffffffffffffffffffffffffffffffff1673ffffffffffffffffffffffffffffffffffffffff1614159050919050565b600033905090565b816004600083815260200190815260200160002060006101000a81548173ffffffffffffffffffffffffffffffffffffffff021916908373ffffffffffffffffffffffffffffffffffffffff160217905550808273ffffffffffffffffffffffffffffffffffffffff1661160383610c02565b73ffffffffffffffffffffffffffffffffffffffff167f8c5be1e5ebec7d5bd14f71427d1e84f3dd0314c0f7b2291e5b200ac8c7c3b92560405160405180910390a45050565b60006116548261151c565b611693576040517f08c379a000000000000000000000000000000000000000000000000000000000815260040161168a90612eb0565b60405180910390fd5b600061169e83610c02565b90508073ffffffffffffffffffffffffffffffffffffffff168473ffffffffffffffffffffffffffffffffffffffff16148061170d57508373ffffffffffffffffffffffffffffffffffffffff166116f5846105b3565b73ffffffffffffffffffffffffffffffffffffffff16145b8061171e575061171d818561141e565b5b91505092915050565b8273ffffffffffffffffffffffffffffffffffffffff1661174782610c02565b73ffffffffffffffffffffffffffffffffffffffff161461179d576040517f08c379a000000000000000000000000000000000000000000000000000000000815260040161179490612f42565b60405180910390fd5b600073ffffffffffffffffffffffffffffffffffffffff168273ffffffffffffffffffffffffffffffffffffffff16141561180d576040517f08c379a000000000000000000000000000000000000000000000000000000000815260040161180490612fd4565b60405180910390fd5b611818838383611d03565b611823600082611590565b6001600360008573ffffffffffffffffffffffffffffffffffffffff1673ffffffffffffffffffffffffffffffffffffffff16815260200190815260200160002060008282546118739190612ff4565b925050819055506001600360008473ffffffffffffffffffffffffffffffffffffffff1673ffffffffffffffffffffffffffffffffffffffff16815260200190815260200160002060008282546118ca9190612c8a565b92505081905550816002600083815260200190815260200160002060006101000a81548173ffffffffffffffffffffffffffffffffffffffff021916908373ffffffffffffffffffffffffffffffffffffffff160217905550808273ffffffffffffffffffffffffffffffffffffffff168473ffffffffffffffffffffffffffffffffffffffff167fddf252ad1be2c89b69c2b068fc378daa952ba7f163c4a11628f55a4df523b3ef60405160405180910390a4505050565b6001816000016000828254019250508190555050565b600081600001549050919050565b600073ffffffffffffffffffffffffffffffffffffffff168273ffffffffffffffffffffffffffffffffffffffff161415611a17576040517f08c379a0000000000000000000000000000000000000000000000000000000008152600401611a0e90613074565b60405180910390fd5b611a208161151c565b15611a60576040517f08c379a0000000000000000000000000000000000000000000000000000000008152600401611a57906130e0565b60405180910390fd5b611a6c60008383611d03565b6001600360008473ffffffffffffffffffffffffffffffffffffffff1673ffffffffffffffffffffffffffffffffffffffff1681526020019081526020016000206000828254611abc9190612c8a565b92505081905550816002600083815260200190815260200160002060006101000a81548173ffffffffffffffffffffffffffffffffffffffff021916908373ffffffffffffffffffffffffffffffffffffffff160217905550808273ffffffffffffffffffffffffffffffffffffffff16600073ffffffffffffffffffffffffffffffffffffffff167fddf252ad1be2c89b69c2b068fc378daa952ba7f163c4a11628f55a4df523b3ef60405160405180910390a45050565b611b7e8261151c565b611bbd576040517f08c379a0000000000000000000000000000000000000000000000000000000008152600401611bb490613172565b60405180910390fd5b80600660008481526020019081526020016000209080519060200190611be4929190612013565b505050565b611bf4848484611727565b611c0084848484611d08565b611c3f576040517f08c379a0000000000000000000000000000000000000000000000000000000008152600401611c3690613204565b60405180910390fd5b50505050565b606060405180602001604052806000815250905090565b6060611c678261151c565b611ca6576040517f08c379a0000000000000000000000000000000000000000000000000000000008152600401611c9d90613296565b60405180910390fd5b6000611cb0611c45565b90506000815111611cd05760405180602001604052806000815250611cfb565b80611cda84611e9f565b604051602001611ceb929190612e1a565b6040516020818303038152906040525b915050919050565b505050565b6000611d298473ffffffffffffffffffffffffffffffffffffffff16612000565b15611e92578373ffffffffffffffffffffffffffffffffffffffff1663150b7a02611d52611588565b8786866040518563ffffffff1660e01b8152600401611d74949392919061330b565b602060405180830381600087803b158015611d8e57600080fd5b505af1925050508015611dbf57506040513d601f19601f82011682018060405250810190611dbc919061336c565b60015b611e42573d8060008114611def576040519150601f19603f3d011682016040523d82523d6000602084013e611df4565b606091505b50600081511415611e3a576040517f08c379a0000000000000000000000000000000000000000000000000000000008152600401611e3190613204565b60405180910390fd5b805181602001fd5b63150b7a0260e01b7bffffffffffffffffffffffffffffffffffffffffffffffffffffffff1916817bffffffffffffffffffffffffffffffffffffffffffffffffffffffff191614915050611e97565b600190505b949350505050565b60606000821415611ee7576040518060400160405280600181526020017f30000000000000000000000000000000000000000000000000000000000000008152509050611ffb565b600082905060005b60008214611f19578080611f0290613399565b915050600a82611f129190613411565b9150611eef565b60008167ffffffffffffffff811115611f3557611f346123c8565b5b6040519080825280601f01601f191660200182016040528015611f675781602001600182028036833780820191505090505b5090505b60008514611ff457600182611f809190612ff4565b9150600a85611f8f9190613442565b6030611f9b9190612c8a565b60f81b818381518110611fb157611fb0613473565b5b60200101907effffffffffffffffffffffffffffffffffffffffffffffffffffffffffffff1916908160001a905350600a85611fed9190613411565b9450611f6b565b8093505050505b919050565b600080823b905060008111915050919050565b82805461201f906127e5565b90600052602060002090601f0160209004810192826120415760008555612088565b82601f1061205a57805160ff1916838001178555612088565b82800160010185558215612088579182015b8281111561208757825182559160200191906001019061206c565b5b5090506120959190612099565b5090565b5b808211156120b257600081600090555060010161209a565b5090565b6000604051905090565b600080fd5b600080fd5b60007fffffffff0000000000000000000000000000000000000000000000000000000082169050919050565b6120ff816120ca565b811461210a57600080fd5b50565b60008135905061211c816120f6565b92915050565b600060208284031215612138576121376120c0565b5b60006121468482850161210d565b91505092915050565b60008115159050919050565b6121648161214f565b82525050565b600060208201905061217f600083018461215b565b92915050565b600081519050919050565b600082825260208201905092915050565b60005b838110156121bf5780820151818401526020810190506121a4565b838111156121ce576000848401525b50505050565b6000601f19601f8301169050919050565b60006121f082612185565b6121fa8185612190565b935061220a8185602086016121a1565b612213816121d4565b840191505092915050565b6000602082019050818103600083015261223881846121e5565b905092915050565b6000819050919050565b61225381612240565b811461225e57600080fd5b50565b6000813590506122708161224a565b92915050565b60006020828403121561228c5761228b6120c0565b5b600061229a84828501612261565b91505092915050565b600073ffffffffffffffffffffffffffffffffffffffff82169050919050565b60006122ce826122a3565b9050919050565b6122de816122c3565b82525050565b60006020820190506122f960008301846122d5565b92915050565b612308816122c3565b811461231357600080fd5b50565b600081359050612325816122ff565b92915050565b60008060408385031215612342576123416120c0565b5b600061235085828601612316565b925050602061236185828601612261565b9150509250929050565b600080600060608486031215612384576123836120c0565b5b600061239286828701612316565b93505060206123a386828701612316565b92505060406123b486828701612261565b9150509250925092565b600080fd5b600080fd5b7f4e487b7100000000000000000000000000000000000000000000000000000000600052604160045260246000fd5b612400826121d4565b810181811067ffffffffffffffff8211171561241f5761241e6123c8565b5b80604052505050565b60006124326120b6565b905061243e82826123f7565b919050565b600067ffffffffffffffff82111561245e5761245d6123c8565b5b612467826121d4565b9050602081019050919050565b82818337600083830152505050565b600061249661249184612443565b612428565b9050828152602081018484840111156124b2576124b16123c3565b5b6124bd848285612474565b509392505050565b600082601f8301126124da576124d96123be565b5b81356124ea848260208601612483565b91505092915050565b6000806040838503121561250a576125096120c0565b5b600061251885828601612316565b925050602083013567ffffffffffffffff811115612539576125386120c5565b5b612545858286016124c5565b9150509250929050565b61255881612240565b82525050565b6000602082019050612573600083018461254f565b92915050565b60006020828403121561258f5761258e6120c0565b5b600061259d84828501612316565b91505092915050565b600080604083850312156125bd576125bc6120c0565b5b60006125cb85828601612261565b92505060206125dc85828601612261565b9150509250929050565b6125ef8161214f565b81146125fa57600080fd5b50565b60008135905061260c816125e6565b92915050565b60008060408385031215612629576126286120c0565b5b600061263785828601612316565b9250506020612648858286016125fd565b9150509250929050565b600067ffffffffffffffff82111561266d5761266c6123c8565b5b612676826121d4565b9050602081019050919050565b600061269661269184612652565b612428565b9050828152602081018484840111156126b2576126b16123c3565b5b6126bd848285612474565b509392505050565b600082601f8301126126da576126d96123be565b5b81356126ea848260208601612683565b91505092915050565b6000806000806080858703121561270d5761270c6120c0565b5b600061271b87828801612316565b945050602061272c87828801612316565b935050604061273d87828801612261565b925050606085013567ffffffffffffffff81111561275e5761275d6120c5565b5b61276a878288016126c5565b91505092959194509250565b6000806040838503121561278d5761278c6120c0565b5b600061279b85828601612316565b92505060206127ac85828601612316565b9150509250929050565b7f4e487b7100000000000000000000000000000000000000000000000000000000600052602260045260246000fd5b600060028204905060018216806127fd57607f821691505b60208210811415612811576128106127b6565b5b50919050565b7f4552433732313a20617070726f76656420717565727920666f72206e6f6e657860008201527f697374656e7420746f6b656e0000000000000000000000000000000000000000602082015250565b6000612873602c83612190565b915061287e82612817565b604082019050919050565b600060208201905081810360008301526128a281612866565b9050919050565b7f4552433732313a20617070726f76616c20746f2063757272656e74206f776e6560008201527f7200000000000000000000000000000000000000000000000000000000000000602082015250565b6000612905602183612190565b9150612910826128a9565b604082019050919050565b60006020820190508181036000830152612934816128f8565b9050919050565b7f4552433732313a20617070726f76652063616c6c6572206973206e6f74206f7760008201527f6e6572206e6f7220617070726f76656420666f7220616c6c0000000000000000602082015250565b6000612997603883612190565b91506129a28261293b565b604082019050919050565b600060208201905081810360008301526129c68161298a565b9050919050565b7f4552433732313a207472616e736665722063616c6c6572206973206e6f74206f60008201527f776e6572206e6f7220617070726f766564000000000000000000000000000000602082015250565b6000612a29603183612190565b9150612a34826129cd565b604082019050919050565b60006020820190508181036000830152612a5881612a1c565b9050919050565b7f426964206d757374206265206869676865720000000000000000000000000000600082015250565b6000612a95601283612190565b9150612aa082612a5f565b602082019050919050565b60006020820190508181036000830152612ac481612a88565b9050919050565b7f4552433732313a206f776e657220717565727920666f72206e6f6e657869737460008201527f656e7420746f6b656e0000000000000000000000000000000000000000000000602082015250565b6000612b27602983612190565b9150612b3282612acb565b604082019050919050565b60006020820190508181036000830152612b5681612b1a565b9050919050565b7f4552433732313a2062616c616e636520717565727920666f7220746865207a6560008201527f726f206164647265737300000000000000000000000000000000000000000000602082015250565b6000612bb9602a83612190565b9150612bc482612b5d565b604082019050919050565b60006020820190508181036000830152612be881612bac565b9050919050565b7f4552433732313a20617070726f766520746f2063616c6c657200000000000000600082015250565b6000612c25601983612190565b9150612c3082612bef565b602082019050919050565b60006020820190508181036000830152612c5481612c18565b9050919050565b7f4e487b7100000000000000000000000000000000000000000000000000000000600052601160045260246000fd5b6000612c9582612240565b9150612ca083612240565b9250827fffffffffffffffffffffffffffffffffffffffffffffffffffffffffffffffff03821115612cd557612cd4612c5b565b5b828201905092915050565b7f41756374696f6e2074696d6520686173206e6f7420656e646564207965740000600082015250565b6000612d16601e83612190565b9150612d2182612ce0565b602082019050919050565b60006020820190508181036000830152612d4581612d09565b9050919050565b7f45524337323155524953746f726167653a2055524920717565727920666f722060008201527f6e6f6e6578697374656e7420746f6b656e000000000000000000000000000000602082015250565b6000612da8603183612190565b9150612db382612d4c565b604082019050919050565b60006020820190508181036000830152612dd781612d9b565b9050919050565b600081905092915050565b6000612df482612185565b612dfe8185612dde565b9350612e0e8185602086016121a1565b80840191505092915050565b6000612e268285612de9565b9150612e328284612de9565b91508190509392505050565b7f4552433732313a206f70657261746f7220717565727920666f72206e6f6e657860008201527f697374656e7420746f6b656e0000000000000000000000000000000000000000602082015250565b6000612e9a602c83612190565b9150612ea582612e3e565b604082019050919050565b60006020820190508181036000830152612ec981612e8d565b9050919050565b7f4552433732313a207472616e73666572206f6620746f6b656e2074686174206960008201527f73206e6f74206f776e0000000000000000000000000000000000000000000000602082015250565b6000612f2c602983612190565b9150612f3782612ed0565b604082019050919050565b60006020820190508181036000830152612f5b81612f1f565b9050919050565b7f4552433732313a207472616e7366657220746f20746865207a65726f2061646460008201527f7265737300000000000000000000000000000000000000000000000000000000602082015250565b6000612fbe602483612190565b9150612fc982612f62565b604082019050919050565b60006020820190508181036000830152612fed81612fb1565b9050919050565b6000612fff82612240565b915061300a83612240565b92508282101561301d5761301c612c5b565b5b828203905092915050565b7f4552433732313a206d696e7420746f20746865207a65726f2061646472657373600082015250565b600061305e602083612190565b915061306982613028565b602082019050919050565b6000602082019050818103600083015261308d81613051565b9050919050565b7f4552433732313a20746f6b656e20616c7265616479206d696e74656400000000600082015250565b60006130ca601c83612190565b91506130d582613094565b602082019050919050565b600060208201905081810360008301526130f9816130bd565b9050919050565b7f45524337323155524953746f726167653a2055524920736574206f66206e6f6e60008201527f6578697374656e7420746f6b656e000000000000000000000000000000000000602082015250565b600061315c602e83612190565b915061316782613100565b604082019050919050565b6000602082019050818103600083015261318b8161314f565b9050919050565b7f4552433732313a207472616e7366657220746f206e6f6e20455243373231526560008201527f63656976657220696d706c656d656e7465720000000000000000000000000000602082015250565b60006131ee603283612190565b91506131f982613192565b604082019050919050565b6000602082019050818103600083015261321d816131e1565b9050919050565b7f4552433732314d657461646174613a2055524920717565727920666f72206e6f60008201527f6e6578697374656e7420746f6b656e0000000000000000000000000000000000602082015250565b6000613280602f83612190565b915061328b82613224565b604082019050919050565b600060208201905081810360008301526132af81613273565b9050919050565b600081519050919050565b600082825260208201905092915050565b60006132dd826132b6565b6132e781856132c1565b93506132f78185602086016121a1565b613300816121d4565b840191505092915050565b600060808201905061332060008301876122d5565b61332d60208301866122d5565b61333a604083018561254f565b818103606083015261334c81846132d2565b905095945050505050565b600081519050613366816120f6565b92915050565b600060208284031215613382576133816120c0565b5b600061339084828501613357565b91505092915050565b60006133a482612240565b91507fffffffffffffffffffffffffffffffffffffffffffffffffffffffffffffffff8214156133d7576133d6612c5b565b5b600182019050919050565b7f4e487b7100000000000000000000000000000000000000000000000000000000600052601260045260246000fd5b600061341c82612240565b915061342783612240565b925082613437576134366133e2565b5b828204905092915050565b600061344d82612240565b915061345883612240565b925082613468576134676133e2565b5b828206905092915050565b7f4e487b7100000000000000000000000000000000000000000000000000000000600052603260045260246000fdfea264697066735822122034f40d76cc0ac8f3a36b00d67b51ee739dbdf887a69a80eb4f2d45d42dfb712164736f6c63430008090033",
  "immutableReferences": {},
  "source": "// SPDX-License-Identifier: GPL-3.0\r\n\r\npragma solidity ^0.8.0;\r\n\r\nimport \"@openzeppelin/contracts/token/ERC721/extensions/ERC721URIStorage.sol\";\r\nimport \"@openzeppelin/contracts/utils/Counters.sol\";\r\n\r\ncontract Funoken is ERC721URIStorage {\r\n    using Counters for Counters.Counter;\r\n    Counters.Counter private _tokenIds;\r\n    \r\n    struct TokenBid{\r\n        bool forSale;\r\n        bool beenBid;\r\n        uint256 highestBid;\r\n        address highestBidder;\r\n        uint auctionStart;\r\n    }\r\n    TokenBid newBid;\r\n     \r\n    mapping (uint256 => TokenBid) idToBid;\r\n    \r\n    modifier upForSale (uint256 _itemId) {\r\n        require(idToBid[_itemId].forSale);\r\n        _;\r\n    }\r\n    modifier onlyOwner (uint256 _itemId){\r\n        require(msg.sender == ownerOf(_itemId));\r\n        _;\r\n    }\r\n    \r\n    constructor() ERC721(\"Funoken\", \"FTK\") {}\r\n    \r\n    function mintToken(address recipient, string memory tokenURI) public returns (uint256) {\r\n        _tokenIds.increment();\r\n        uint256 newItemId = _tokenIds.current();\r\n        _mint(recipient, newItemId);\r\n        _setTokenURI(newItemId, tokenURI);\r\n        newBid = TokenBid(false, false, 0, address(0), 0);\r\n        idToBid[newItemId] = newBid;\r\n        return newItemId;\r\n    }\r\n    \r\n    function auction(uint256 itemId, uint256 amount) public onlyOwner(itemId) {\r\n        idToBid[itemId].forSale = true;\r\n        idToBid[itemId].highestBid = amount;\r\n        idToBid[itemId].auctionStart = block.timestamp;\r\n    }\r\n    \r\n    function bid(uint256 itemId) public payable upForSale(itemId){\r\n        require(msg.value> idToBid[itemId].highestBid, \"Bid must be higher\"); \r\n        require(msg.sender != ownerOf(itemId));\r\n        \r\n        if(idToBid[itemId].beenBid){\r\n            payable(idToBid[itemId].highestBidder).transfer(idToBid[itemId].highestBid);\r\n        }\r\n        idToBid[itemId].highestBid = msg.value;\r\n        idToBid[itemId].highestBidder = msg.sender;\r\n        idToBid[itemId].beenBid = true;\r\n    }\r\n    \r\n    function endAuction(uint256 itemId) public upForSale(itemId){\r\n        require(block.timestamp > idToBid[itemId].auctionStart + 86400 seconds, \"Auction time has not ended yet\");\r\n        \r\n        if (idToBid[itemId].beenBid){\r\n            payable(ownerOf(itemId)).transfer(idToBid[itemId].highestBid);\r\n            transferFrom(ownerOf(itemId), idToBid[itemId].highestBidder, itemId);\r\n        }\r\n        idToBid[itemId].forSale = false;\r\n        idToBid[itemId].beenBid = false;\r\n        idToBid[itemId].highestBid = 0;\r\n        idToBid[itemId].highestBidder = address(0);    \r\n\r\n    }\r\n}",
  "sourcePath": "D:\\Projects\\Funoken\\contracts\\Funoken.sol",
  "compiler": {
    "name": "solc",
    "version": "0.8.9+commit.e5eed63a.Emscripten.clang"
  },
  "schemaVersion": "3.4.3",
  "updatedAt": "2021-10-28T15:39:08.669Z",
  "devdoc": {
    "kind": "dev",
    "methods": {
      "approve(address,uint256)": {
        "details": "See {IERC721-approve}."
      },
      "balanceOf(address)": {
        "details": "See {IERC721-balanceOf}."
      },
      "getApproved(uint256)": {
        "details": "See {IERC721-getApproved}."
      },
      "isApprovedForAll(address,address)": {
        "details": "See {IERC721-isApprovedForAll}."
      },
      "name()": {
        "details": "See {IERC721Metadata-name}."
      },
      "ownerOf(uint256)": {
        "details": "See {IERC721-ownerOf}."
      },
      "safeTransferFrom(address,address,uint256)": {
        "details": "See {IERC721-safeTransferFrom}."
      },
      "safeTransferFrom(address,address,uint256,bytes)": {
        "details": "See {IERC721-safeTransferFrom}."
      },
      "setApprovalForAll(address,bool)": {
        "details": "See {IERC721-setApprovalForAll}."
      },
      "supportsInterface(bytes4)": {
        "details": "See {IERC165-supportsInterface}."
      },
      "symbol()": {
        "details": "See {IERC721Metadata-symbol}."
      },
      "tokenURI(uint256)": {
        "details": "See {IERC721Metadata-tokenURI}."
      },
      "transferFrom(address,address,uint256)": {
        "details": "See {IERC721-transferFrom}."
      }
    },
    "version": 1
  },
  "userdoc": {
    "kind": "user",
    "methods": {},
    "version": 1
  }
}