{
  "contractName": "Funoken",
  "abi": [
    {
      "inputs": [],
      "stateMutability": "nonpayable",
      "type": "constructor"
    },
    {
      "anonymous": false,
      "inputs": [
        {
          "indexed": true,
          "internalType": "address",
          "name": "owner",
          "type": "address"
        },
        {
          "indexed": true,
          "internalType": "address",
          "name": "approved",
          "type": "address"
        },
        {
          "indexed": true,
          "internalType": "uint256",
          "name": "tokenId",
          "type": "uint256"
        }
      ],
      "name": "Approval",
      "type": "event"
    },
    {
      "anonymous": false,
      "inputs": [
        {
          "indexed": true,
          "internalType": "address",
          "name": "owner",
          "type": "address"
        },
        {
          "indexed": true,
          "internalType": "address",
          "name": "operator",
          "type": "address"
        },
        {
          "indexed": false,
          "internalType": "bool",
          "name": "approved",
          "type": "bool"
        }
      ],
      "name": "ApprovalForAll",
      "type": "event"
    },
    {
      "anonymous": false,
      "inputs": [
        {
          "indexed": true,
          "internalType": "address",
          "name": "from",
          "type": "address"
        },
        {
          "indexed": true,
          "internalType": "address",
          "name": "to",
          "type": "address"
        },
        {
          "indexed": true,
          "internalType": "uint256",
          "name": "tokenId",
          "type": "uint256"
        }
      ],
      "name": "Transfer",
      "type": "event"
    },
    {
      "inputs": [
        {
          "internalType": "address",
          "name": "to",
          "type": "address"
        },
        {
          "internalType": "uint256",
          "name": "tokenId",
          "type": "uint256"
        }
      ],
      "name": "approve",
      "outputs": [],
      "stateMutability": "nonpayable",
      "type": "function"
    },
    {
      "inputs": [
        {
          "internalType": "address",
          "name": "owner",
          "type": "address"
        }
      ],
      "name": "balanceOf",
      "outputs": [
        {
          "internalType": "uint256",
          "name": "",
          "type": "uint256"
        }
      ],
      "stateMutability": "view",
      "type": "function"
    },
    {
      "inputs": [
        {
          "internalType": "uint256",
          "name": "tokenId",
          "type": "uint256"
        }
      ],
      "name": "getApproved",
      "outputs": [
        {
          "internalType": "address",
          "name": "",
          "type": "address"
        }
      ],
      "stateMutability": "view",
      "type": "function"
    },
    {
      "inputs": [
        {
          "internalType": "uint256",
          "name": "",
          "type": "uint256"
        }
      ],
      "name": "idToBid",
      "outputs": [
        {
          "internalType": "bool",
          "name": "forSale",
          "type": "bool"
        },
        {
          "internalType": "bool",
          "name": "beenBid",
          "type": "bool"
        },
        {
          "internalType": "uint256",
          "name": "highestBid",
          "type": "uint256"
        },
        {
          "internalType": "address",
          "name": "highestBidder",
          "type": "address"
        },
        {
          "internalType": "uint256",
          "name": "auctionStart",
          "type": "uint256"
        }
      ],
      "stateMutability": "view",
      "type": "function"
    },
    {
      "inputs": [
        {
          "internalType": "address",
          "name": "owner",
          "type": "address"
        },
        {
          "internalType": "address",
          "name": "operator",
          "type": "address"
        }
      ],
      "name": "isApprovedForAll",
      "outputs": [
        {
          "internalType": "bool",
          "name": "",
          "type": "bool"
        }
      ],
      "stateMutability": "view",
      "type": "function"
    },
    {
      "inputs": [],
      "name": "name",
      "outputs": [
        {
          "internalType": "string",
          "name": "",
          "type": "string"
        }
      ],
      "stateMutability": "view",
      "type": "function"
    },
    {
      "inputs": [
        {
          "internalType": "uint256",
          "name": "tokenId",
          "type": "uint256"
        }
      ],
      "name": "ownerOf",
      "outputs": [
        {
          "internalType": "address",
          "name": "",
          "type": "address"
        }
      ],
      "stateMutability": "view",
      "type": "function"
    },
    {
      "inputs": [
        {
          "internalType": "address",
          "name": "from",
          "type": "address"
        },
        {
          "internalType": "address",
          "name": "to",
          "type": "address"
        },
        {
          "internalType": "uint256",
          "name": "tokenId",
          "type": "uint256"
        }
      ],
      "name": "safeTransferFrom",
      "outputs": [],
      "stateMutability": "nonpayable",
      "type": "function"
    },
    {
      "inputs": [
        {
          "internalType": "address",
          "name": "from",
          "type": "address"
        },
        {
          "internalType": "address",
          "name": "to",
          "type": "address"
        },
        {
          "internalType": "uint256",
          "name": "tokenId",
          "type": "uint256"
        },
        {
          "internalType": "bytes",
          "name": "_data",
          "type": "bytes"
        }
      ],
      "name": "safeTransferFrom",
      "outputs": [],
      "stateMutability": "nonpayable",
      "type": "function"
    },
    {
      "inputs": [
        {
          "internalType": "address",
          "name": "operator",
          "type": "address"
        },
        {
          "internalType": "bool",
          "name": "approved",
          "type": "bool"
        }
      ],
      "name": "setApprovalForAll",
      "outputs": [],
      "stateMutability": "nonpayable",
      "type": "function"
    },
    {
      "inputs": [
        {
          "internalType": "bytes4",
          "name": "interfaceId",
          "type": "bytes4"
        }
      ],
      "name": "supportsInterface",
      "outputs": [
        {
          "internalType": "bool",
          "name": "",
          "type": "bool"
        }
      ],
      "stateMutability": "view",
      "type": "function"
    },
    {
      "inputs": [],
      "name": "symbol",
      "outputs": [
        {
          "internalType": "string",
          "name": "",
          "type": "string"
        }
      ],
      "stateMutability": "view",
      "type": "function"
    },
    {
      "inputs": [
        {
          "internalType": "uint256",
          "name": "tokenId",
          "type": "uint256"
        }
      ],
      "name": "tokenURI",
      "outputs": [
        {
          "internalType": "string",
          "name": "",
          "type": "string"
        }
      ],
      "stateMutability": "view",
      "type": "function"
    },
    {
      "inputs": [
        {
          "internalType": "address",
          "name": "from",
          "type": "address"
        },
        {
          "internalType": "address",
          "name": "to",
          "type": "address"
        },
        {
          "internalType": "uint256",
          "name": "tokenId",
          "type": "uint256"
        }
      ],
      "name": "transferFrom",
      "outputs": [],
      "stateMutability": "nonpayable",
      "type": "function"
    },
    {
      "inputs": [
        {
          "internalType": "string",
          "name": "tokenURI",
          "type": "string"
        }
      ],
      "name": "mintToken",
      "outputs": [
        {
          "internalType": "uint256",
          "name": "",
          "type": "uint256"
        }
      ],
      "stateMutability": "nonpayable",
      "type": "function"
    },
    {
      "inputs": [
        {
          "internalType": "uint256",
          "name": "itemId",
          "type": "uint256"
        },
        {
          "internalType": "uint256",
          "name": "amount",
          "type": "uint256"
        }
      ],
      "name": "auction",
      "outputs": [],
      "stateMutability": "nonpayable",
      "type": "function"
    },
    {
      "inputs": [
        {
          "internalType": "uint256",
          "name": "itemId",
          "type": "uint256"
        }
      ],
      "name": "bid",
      "outputs": [],
      "stateMutability": "payable",
      "type": "function"
    },
    {
      "inputs": [
        {
          "internalType": "uint256",
          "name": "itemId",
          "type": "uint256"
        }
      ],
      "name": "endAuction",
      "outputs": [],
      "stateMutability": "nonpayable",
      "type": "function"
    }
  ],
  "bytecode": "0x60806040523480156200001157600080fd5b506040518060400160405280600781526020017f46756e6f6b656e000000000000000000000000000000000000000000000000008152506040518060400160405280600381526020017f46544b0000000000000000000000000000000000000000000000000000000000815250816000908051906020019062000096929190620000b8565b508060019080519060200190620000af929190620000b8565b505050620001cd565b828054620000c69062000197565b90600052602060002090601f016020900481019282620000ea576000855562000136565b82601f106200010557805160ff191683800117855562000136565b8280016001018555821562000136579182015b828111156200013557825182559160200191906001019062000118565b5b50905062000145919062000149565b5090565b5b80821115620001645760008160009055506001016200014a565b5090565b7f4e487b7100000000000000000000000000000000000000000000000000000000600052602260045260246000fd5b60006002820490506001821680620001b057607f821691505b60208210811415620001c757620001c662000168565b5b50919050565b6135ef80620001dd6000396000f3fe6080604052600436106101095760003560e01c806370a0823111610095578063b88d4fde11610064578063b88d4fde1461037e578063b9a2de3a146103a7578063c87b56dd146103d0578063e914a9fc1461040d578063e985e9c51461044e57610109565b806370a08231146102c45780638ea14bfe1461030157806395d89b411461032a578063a22cb4651461035557610109565b806323b872dd116100dc57806323b872dd146101dc57806333eba49a1461020557806342842e0e14610242578063454a2ab31461026b5780636352211e1461028757610109565b806301ffc9a71461010e57806306fdde031461014b578063081812fc14610176578063095ea7b3146101b3575b600080fd5b34801561011a57600080fd5b50610135600480360381019061013091906121f9565b61048b565b6040516101429190612241565b60405180910390f35b34801561015757600080fd5b5061016061056d565b60405161016d91906122f5565b60405180910390f35b34801561018257600080fd5b5061019d6004803603810190610198919061234d565b6105ff565b6040516101aa91906123bb565b60405180910390f35b3480156101bf57600080fd5b506101da60048036038101906101d59190612402565b610684565b005b3480156101e857600080fd5b5061020360048036038101906101fe9190612442565b61079c565b005b34801561021157600080fd5b5061022c600480360381019061022791906125ca565b6107fc565b6040516102399190612622565b60405180910390f35b34801561024e57600080fd5b5061026960048036038101906102649190612442565b610a06565b005b6102856004803603810190610280919061234d565b610a26565b005b34801561029357600080fd5b506102ae60048036038101906102a9919061234d565b610c4d565b6040516102bb91906123bb565b60405180910390f35b3480156102d057600080fd5b506102eb60048036038101906102e6919061263d565b610cff565b6040516102f89190612622565b60405180910390f35b34801561030d57600080fd5b506103286004803603810190610323919061266a565b610db7565b005b34801561033657600080fd5b5061033f610e62565b60405161034c91906122f5565b60405180910390f35b34801561036157600080fd5b5061037c600480360381019061037791906126d6565b610ef4565b005b34801561038a57600080fd5b506103a560048036038101906103a091906127b7565b611075565b005b3480156103b357600080fd5b506103ce60048036038101906103c9919061234d565b6110d7565b005b3480156103dc57600080fd5b506103f760048036038101906103f2919061234d565b611333565b60405161040491906122f5565b60405180910390f35b34801561041957600080fd5b50610434600480360381019061042f919061234d565b611485565b60405161044595949392919061283a565b60405180910390f35b34801561045a57600080fd5b506104756004803603810190610470919061288d565b6114f5565b6040516104829190612241565b60405180910390f35b60007f80ac58cd000000000000000000000000000000000000000000000000000000007bffffffffffffffffffffffffffffffffffffffffffffffffffffffff1916827bffffffffffffffffffffffffffffffffffffffffffffffffffffffff1916148061055657507f5b5e139f000000000000000000000000000000000000000000000000000000007bffffffffffffffffffffffffffffffffffffffffffffffffffffffff1916827bffffffffffffffffffffffffffffffffffffffffffffffffffffffff1916145b80610566575061056582611589565b5b9050919050565b60606000805461057c906128fc565b80601f01602080910402602001604051908101604052809291908181526020018280546105a8906128fc565b80156105f55780601f106105ca576101008083540402835291602001916105f5565b820191906000526020600020905b8154815290600101906020018083116105d857829003601f168201915b5050505050905090565b600061060a826115f3565b610649576040517f08c379a0000000000000000000000000000000000000000000000000000000008152600401610640906129a0565b60405180910390fd5b6004600083815260200190815260200160002060009054906101000a900473ffffffffffffffffffffffffffffffffffffffff169050919050565b600061068f82610c4d565b90508073ffffffffffffffffffffffffffffffffffffffff168373ffffffffffffffffffffffffffffffffffffffff161415610700576040517f08c379a00000000000000000000000000000000000000000000000000000000081526004016106f790612a32565b60405180910390fd5b8073ffffffffffffffffffffffffffffffffffffffff1661071f61165f565b73ffffffffffffffffffffffffffffffffffffffff16148061074e575061074d8161074861165f565b6114f5565b5b61078d576040517f08c379a000000000000000000000000000000000000000000000000000000000815260040161078490612ac4565b60405180910390fd5b6107978383611667565b505050565b6107ad6107a761165f565b82611720565b6107ec576040517f08c379a00000000000000000000000000000000000000000000000000000000081526004016107e390612b56565b60405180910390fd5b6107f78383836117fe565b505050565b60006108086007611a5a565b60006108146007611a70565b90506108203382611a7e565b61082a8184611c4c565b6040518060a0016040528060001515815260200160001515815260200160008152602001600073ffffffffffffffffffffffffffffffffffffffff1681526020016000815250600860008201518160000160006101000a81548160ff02191690831515021790555060208201518160000160016101000a81548160ff0219169083151502179055506040820151816001015560608201518160020160006101000a81548173ffffffffffffffffffffffffffffffffffffffff021916908373ffffffffffffffffffffffffffffffffffffffff160217905550608082015181600301559050506008600c60008381526020019081526020016000206000820160009054906101000a900460ff168160000160006101000a81548160ff0219169083151502179055506000820160019054906101000a900460ff168160000160016101000a81548160ff021916908315150217905550600182015481600101556002820160009054906101000a900473ffffffffffffffffffffffffffffffffffffffff168160020160006101000a81548173ffffffffffffffffffffffffffffffffffffffff021916908373ffffffffffffffffffffffffffffffffffffffff1602179055506003820154816003015590505080915050919050565b610a2183838360405180602001604052806000815250611075565b505050565b80600c600082815260200190815260200160002060000160009054906101000a900460ff16610a5457600080fd5b600c6000838152602001908152602001600020600101543411610aac576040517f08c379a0000000000000000000000000000000000000000000000000000000008152600401610aa390612bc2565b60405180910390fd5b610ab582610c4d565b73ffffffffffffffffffffffffffffffffffffffff163373ffffffffffffffffffffffffffffffffffffffff161415610aed57600080fd5b600c600083815260200190815260200160002060000160019054906101000a900460ff1615610baa57600c600083815260200190815260200160002060020160009054906101000a900473ffffffffffffffffffffffffffffffffffffffff1673ffffffffffffffffffffffffffffffffffffffff166108fc600c6000858152602001908152602001600020600101549081150290604051600060405180830381858888f19350505050158015610ba8573d6000803e3d6000fd5b505b34600c60008481526020019081526020016000206001018190555033600c600084815260200190815260200160002060020160006101000a81548173ffffffffffffffffffffffffffffffffffffffff021916908373ffffffffffffffffffffffffffffffffffffffff1602179055506001600c600084815260200190815260200160002060000160016101000a81548160ff0219169083151502179055505050565b6000806002600084815260200190815260200160002060009054906101000a900473ffffffffffffffffffffffffffffffffffffffff169050600073ffffffffffffffffffffffffffffffffffffffff168173ffffffffffffffffffffffffffffffffffffffff161415610cf6576040517f08c379a0000000000000000000000000000000000000000000000000000000008152600401610ced90612c54565b60405180910390fd5b80915050919050565b60008073ffffffffffffffffffffffffffffffffffffffff168273ffffffffffffffffffffffffffffffffffffffff161415610d70576040517f08c379a0000000000000000000000000000000000000000000000000000000008152600401610d6790612ce6565b60405180910390fd5b600360008373ffffffffffffffffffffffffffffffffffffffff1673ffffffffffffffffffffffffffffffffffffffff168152602001908152602001600020549050919050565b81610dc181610c4d565b73ffffffffffffffffffffffffffffffffffffffff163373ffffffffffffffffffffffffffffffffffffffff1614610df857600080fd5b6001600c600085815260200190815260200160002060000160006101000a81548160ff02191690831515021790555081600c60008581526020019081526020016000206001018190555042600c600085815260200190815260200160002060030181905550505050565b606060018054610e71906128fc565b80601f0160208091040260200160405190810160405280929190818152602001828054610e9d906128fc565b8015610eea5780601f10610ebf57610100808354040283529160200191610eea565b820191906000526020600020905b815481529060010190602001808311610ecd57829003601f168201915b5050505050905090565b610efc61165f565b73ffffffffffffffffffffffffffffffffffffffff168273ffffffffffffffffffffffffffffffffffffffff161415610f6a576040517f08c379a0000000000000000000000000000000000000000000000000000000008152600401610f6190612d52565b60405180910390fd5b8060056000610f7761165f565b73ffffffffffffffffffffffffffffffffffffffff1673ffffffffffffffffffffffffffffffffffffffff16815260200190815260200160002060008473ffffffffffffffffffffffffffffffffffffffff1673ffffffffffffffffffffffffffffffffffffffff16815260200190815260200160002060006101000a81548160ff0219169083151502179055508173ffffffffffffffffffffffffffffffffffffffff1661102461165f565b73ffffffffffffffffffffffffffffffffffffffff167f17307eab39ab6107e8899845ad3d59bd9653f200f220920489ca2b5937696c31836040516110699190612241565b60405180910390a35050565b61108661108061165f565b83611720565b6110c5576040517f08c379a00000000000000000000000000000000000000000000000000000000081526004016110bc90612b56565b60405180910390fd5b6110d184848484611cc0565b50505050565b80600c600082815260200190815260200160002060000160009054906101000a900460ff1661110557600080fd5b62015180600c60008481526020019081526020016000206003015461112a9190612da1565b421161116b576040517f08c379a000000000000000000000000000000000000000000000000000000000815260040161116290612e43565b60405180910390fd5b600c600083815260200190815260200160002060000160019054906101000a900460ff16156112435761119d82610c4d565b73ffffffffffffffffffffffffffffffffffffffff166108fc600c6000858152602001908152602001600020600101549081150290604051600060405180830381858888f193505050501580156111f8573d6000803e3d6000fd5b5061124261120583610c4d565b600c600085815260200190815260200160002060020160009054906101000a900473ffffffffffffffffffffffffffffffffffffffff168461079c565b5b6000600c600084815260200190815260200160002060000160006101000a81548160ff0219169083151502179055506000600c600084815260200190815260200160002060000160016101000a81548160ff0219169083151502179055506000600c6000848152602001908152602001600020600101819055506000600c600084815260200190815260200160002060020160006101000a81548173ffffffffffffffffffffffffffffffffffffffff021916908373ffffffffffffffffffffffffffffffffffffffff1602179055506000600c6000848152602001908152602001600020600301819055505050565b606061133e826115f3565b61137d576040517f08c379a000000000000000000000000000000000000000000000000000000000815260040161137490612ed5565b60405180910390fd5b600060066000848152602001908152602001600020805461139d906128fc565b80601f01602080910402602001604051908101604052809291908181526020018280546113c9906128fc565b80156114165780601f106113eb57610100808354040283529160200191611416565b820191906000526020600020905b8154815290600101906020018083116113f957829003601f168201915b505050505090506000611427611d1c565b905060008151141561143d578192505050611480565b60008251111561147257808260405160200161145a929190612f31565b60405160208183030381529060405292505050611480565b61147b84611d33565b925050505b919050565b600c6020528060005260406000206000915090508060000160009054906101000a900460ff16908060000160019054906101000a900460ff16908060010154908060020160009054906101000a900473ffffffffffffffffffffffffffffffffffffffff16908060030154905085565b6000600560008473ffffffffffffffffffffffffffffffffffffffff1673ffffffffffffffffffffffffffffffffffffffff16815260200190815260200160002060008373ffffffffffffffffffffffffffffffffffffffff1673ffffffffffffffffffffffffffffffffffffffff16815260200190815260200160002060009054906101000a900460ff16905092915050565b60007f01ffc9a7000000000000000000000000000000000000000000000000000000007bffffffffffffffffffffffffffffffffffffffffffffffffffffffff1916827bffffffffffffffffffffffffffffffffffffffffffffffffffffffff1916149050919050565b60008073ffffffffffffffffffffffffffffffffffffffff166002600084815260200190815260200160002060009054906101000a900473ffffffffffffffffffffffffffffffffffffffff1673ffffffffffffffffffffffffffffffffffffffff1614159050919050565b600033905090565b816004600083815260200190815260200160002060006101000a81548173ffffffffffffffffffffffffffffffffffffffff021916908373ffffffffffffffffffffffffffffffffffffffff160217905550808273ffffffffffffffffffffffffffffffffffffffff166116da83610c4d565b73ffffffffffffffffffffffffffffffffffffffff167f8c5be1e5ebec7d5bd14f71427d1e84f3dd0314c0f7b2291e5b200ac8c7c3b92560405160405180910390a45050565b600061172b826115f3565b61176a576040517f08c379a000000000000000000000000000000000000000000000000000000000815260040161176190612fc7565b60405180910390fd5b600061177583610c4d565b90508073ffffffffffffffffffffffffffffffffffffffff168473ffffffffffffffffffffffffffffffffffffffff1614806117e457508373ffffffffffffffffffffffffffffffffffffffff166117cc846105ff565b73ffffffffffffffffffffffffffffffffffffffff16145b806117f557506117f481856114f5565b5b91505092915050565b8273ffffffffffffffffffffffffffffffffffffffff1661181e82610c4d565b73ffffffffffffffffffffffffffffffffffffffff1614611874576040517f08c379a000000000000000000000000000000000000000000000000000000000815260040161186b90613059565b60405180910390fd5b600073ffffffffffffffffffffffffffffffffffffffff168273ffffffffffffffffffffffffffffffffffffffff1614156118e4576040517f08c379a00000000000000000000000000000000000000000000000000000000081526004016118db906130eb565b60405180910390fd5b6118ef838383611dda565b6118fa600082611667565b6001600360008573ffffffffffffffffffffffffffffffffffffffff1673ffffffffffffffffffffffffffffffffffffffff168152602001908152602001600020600082825461194a919061310b565b925050819055506001600360008473ffffffffffffffffffffffffffffffffffffffff1673ffffffffffffffffffffffffffffffffffffffff16815260200190815260200160002060008282546119a19190612da1565b92505081905550816002600083815260200190815260200160002060006101000a81548173ffffffffffffffffffffffffffffffffffffffff021916908373ffffffffffffffffffffffffffffffffffffffff160217905550808273ffffffffffffffffffffffffffffffffffffffff168473ffffffffffffffffffffffffffffffffffffffff167fddf252ad1be2c89b69c2b068fc378daa952ba7f163c4a11628f55a4df523b3ef60405160405180910390a4505050565b6001816000016000828254019250508190555050565b600081600001549050919050565b600073ffffffffffffffffffffffffffffffffffffffff168273ffffffffffffffffffffffffffffffffffffffff161415611aee576040517f08c379a0000000000000000000000000000000000000000000000000000000008152600401611ae59061318b565b60405180910390fd5b611af7816115f3565b15611b37576040517f08c379a0000000000000000000000000000000000000000000000000000000008152600401611b2e906131f7565b60405180910390fd5b611b4360008383611dda565b6001600360008473ffffffffffffffffffffffffffffffffffffffff1673ffffffffffffffffffffffffffffffffffffffff1681526020019081526020016000206000828254611b939190612da1565b92505081905550816002600083815260200190815260200160002060006101000a81548173ffffffffffffffffffffffffffffffffffffffff021916908373ffffffffffffffffffffffffffffffffffffffff160217905550808273ffffffffffffffffffffffffffffffffffffffff16600073ffffffffffffffffffffffffffffffffffffffff167fddf252ad1be2c89b69c2b068fc378daa952ba7f163c4a11628f55a4df523b3ef60405160405180910390a45050565b611c55826115f3565b611c94576040517f08c379a0000000000000000000000000000000000000000000000000000000008152600401611c8b90613289565b60405180910390fd5b80600660008481526020019081526020016000209080519060200190611cbb9291906120ea565b505050565b611ccb8484846117fe565b611cd784848484611ddf565b611d16576040517f08c379a0000000000000000000000000000000000000000000000000000000008152600401611d0d9061331b565b60405180910390fd5b50505050565b606060405180602001604052806000815250905090565b6060611d3e826115f3565b611d7d576040517f08c379a0000000000000000000000000000000000000000000000000000000008152600401611d74906133ad565b60405180910390fd5b6000611d87611d1c565b90506000815111611da75760405180602001604052806000815250611dd2565b80611db184611f76565b604051602001611dc2929190612f31565b6040516020818303038152906040525b915050919050565b505050565b6000611e008473ffffffffffffffffffffffffffffffffffffffff166120d7565b15611f69578373ffffffffffffffffffffffffffffffffffffffff1663150b7a02611e2961165f565b8786866040518563ffffffff1660e01b8152600401611e4b9493929190613422565b602060405180830381600087803b158015611e6557600080fd5b505af1925050508015611e9657506040513d601f19601f82011682018060405250810190611e939190613483565b60015b611f19573d8060008114611ec6576040519150601f19603f3d011682016040523d82523d6000602084013e611ecb565b606091505b50600081511415611f11576040517f08c379a0000000000000000000000000000000000000000000000000000000008152600401611f089061331b565b60405180910390fd5b805181602001fd5b63150b7a0260e01b7bffffffffffffffffffffffffffffffffffffffffffffffffffffffff1916817bffffffffffffffffffffffffffffffffffffffffffffffffffffffff191614915050611f6e565b600190505b949350505050565b60606000821415611fbe576040518060400160405280600181526020017f300000000000000000000000000000000000000000000000000000000000000081525090506120d2565b600082905060005b60008214611ff0578080611fd9906134b0565b915050600a82611fe99190613528565b9150611fc6565b60008167ffffffffffffffff81111561200c5761200b61249f565b5b6040519080825280601f01601f19166020018201604052801561203e5781602001600182028036833780820191505090505b5090505b600085146120cb57600182612057919061310b565b9150600a856120669190613559565b60306120729190612da1565b60f81b8183815181106120885761208761358a565b5b60200101907effffffffffffffffffffffffffffffffffffffffffffffffffffffffffffff1916908160001a905350600a856120c49190613528565b9450612042565b8093505050505b919050565b600080823b905060008111915050919050565b8280546120f6906128fc565b90600052602060002090601f016020900481019282612118576000855561215f565b82601f1061213157805160ff191683800117855561215f565b8280016001018555821561215f579182015b8281111561215e578251825591602001919060010190612143565b5b50905061216c9190612170565b5090565b5b80821115612189576000816000905550600101612171565b5090565b6000604051905090565b600080fd5b600080fd5b60007fffffffff0000000000000000000000000000000000000000000000000000000082169050919050565b6121d6816121a1565b81146121e157600080fd5b50565b6000813590506121f3816121cd565b92915050565b60006020828403121561220f5761220e612197565b5b600061221d848285016121e4565b91505092915050565b60008115159050919050565b61223b81612226565b82525050565b60006020820190506122566000830184612232565b92915050565b600081519050919050565b600082825260208201905092915050565b60005b8381101561229657808201518184015260208101905061227b565b838111156122a5576000848401525b50505050565b6000601f19601f8301169050919050565b60006122c78261225c565b6122d18185612267565b93506122e1818560208601612278565b6122ea816122ab565b840191505092915050565b6000602082019050818103600083015261230f81846122bc565b905092915050565b6000819050919050565b61232a81612317565b811461233557600080fd5b50565b60008135905061234781612321565b92915050565b60006020828403121561236357612362612197565b5b600061237184828501612338565b91505092915050565b600073ffffffffffffffffffffffffffffffffffffffff82169050919050565b60006123a58261237a565b9050919050565b6123b58161239a565b82525050565b60006020820190506123d060008301846123ac565b92915050565b6123df8161239a565b81146123ea57600080fd5b50565b6000813590506123fc816123d6565b92915050565b6000806040838503121561241957612418612197565b5b6000612427858286016123ed565b925050602061243885828601612338565b9150509250929050565b60008060006060848603121561245b5761245a612197565b5b6000612469868287016123ed565b935050602061247a868287016123ed565b925050604061248b86828701612338565b9150509250925092565b600080fd5b600080fd5b7f4e487b7100000000000000000000000000000000000000000000000000000000600052604160045260246000fd5b6124d7826122ab565b810181811067ffffffffffffffff821117156124f6576124f561249f565b5b80604052505050565b600061250961218d565b905061251582826124ce565b919050565b600067ffffffffffffffff8211156125355761253461249f565b5b61253e826122ab565b9050602081019050919050565b82818337600083830152505050565b600061256d6125688461251a565b6124ff565b9050828152602081018484840111156125895761258861249a565b5b61259484828561254b565b509392505050565b600082601f8301126125b1576125b0612495565b5b81356125c184826020860161255a565b91505092915050565b6000602082840312156125e0576125df612197565b5b600082013567ffffffffffffffff8111156125fe576125fd61219c565b5b61260a8482850161259c565b91505092915050565b61261c81612317565b82525050565b60006020820190506126376000830184612613565b92915050565b60006020828403121561265357612652612197565b5b6000612661848285016123ed565b91505092915050565b6000806040838503121561268157612680612197565b5b600061268f85828601612338565b92505060206126a085828601612338565b9150509250929050565b6126b381612226565b81146126be57600080fd5b50565b6000813590506126d0816126aa565b92915050565b600080604083850312156126ed576126ec612197565b5b60006126fb858286016123ed565b925050602061270c858286016126c1565b9150509250929050565b600067ffffffffffffffff8211156127315761273061249f565b5b61273a826122ab565b9050602081019050919050565b600061275a61275584612716565b6124ff565b9050828152602081018484840111156127765761277561249a565b5b61278184828561254b565b509392505050565b600082601f83011261279e5761279d612495565b5b81356127ae848260208601612747565b91505092915050565b600080600080608085870312156127d1576127d0612197565b5b60006127df878288016123ed565b94505060206127f0878288016123ed565b935050604061280187828801612338565b925050606085013567ffffffffffffffff8111156128225761282161219c565b5b61282e87828801612789565b91505092959194509250565b600060a08201905061284f6000830188612232565b61285c6020830187612232565b6128696040830186612613565b61287660608301856123ac565b6128836080830184612613565b9695505050505050565b600080604083850312156128a4576128a3612197565b5b60006128b2858286016123ed565b92505060206128c3858286016123ed565b9150509250929050565b7f4e487b7100000000000000000000000000000000000000000000000000000000600052602260045260246000fd5b6000600282049050600182168061291457607f821691505b60208210811415612928576129276128cd565b5b50919050565b7f4552433732313a20617070726f76656420717565727920666f72206e6f6e657860008201527f697374656e7420746f6b656e0000000000000000000000000000000000000000602082015250565b600061298a602c83612267565b91506129958261292e565b604082019050919050565b600060208201905081810360008301526129b98161297d565b9050919050565b7f4552433732313a20617070726f76616c20746f2063757272656e74206f776e6560008201527f7200000000000000000000000000000000000000000000000000000000000000602082015250565b6000612a1c602183612267565b9150612a27826129c0565b604082019050919050565b60006020820190508181036000830152612a4b81612a0f565b9050919050565b7f4552433732313a20617070726f76652063616c6c6572206973206e6f74206f7760008201527f6e6572206e6f7220617070726f76656420666f7220616c6c0000000000000000602082015250565b6000612aae603883612267565b9150612ab982612a52565b604082019050919050565b60006020820190508181036000830152612add81612aa1565b9050919050565b7f4552433732313a207472616e736665722063616c6c6572206973206e6f74206f60008201527f776e6572206e6f7220617070726f766564000000000000000000000000000000602082015250565b6000612b40603183612267565b9150612b4b82612ae4565b604082019050919050565b60006020820190508181036000830152612b6f81612b33565b9050919050565b7f426964206d757374206265206869676865720000000000000000000000000000600082015250565b6000612bac601283612267565b9150612bb782612b76565b602082019050919050565b60006020820190508181036000830152612bdb81612b9f565b9050919050565b7f4552433732313a206f776e657220717565727920666f72206e6f6e657869737460008201527f656e7420746f6b656e0000000000000000000000000000000000000000000000602082015250565b6000612c3e602983612267565b9150612c4982612be2565b604082019050919050565b60006020820190508181036000830152612c6d81612c31565b9050919050565b7f4552433732313a2062616c616e636520717565727920666f7220746865207a6560008201527f726f206164647265737300000000000000000000000000000000000000000000602082015250565b6000612cd0602a83612267565b9150612cdb82612c74565b604082019050919050565b60006020820190508181036000830152612cff81612cc3565b9050919050565b7f4552433732313a20617070726f766520746f2063616c6c657200000000000000600082015250565b6000612d3c601983612267565b9150612d4782612d06565b602082019050919050565b60006020820190508181036000830152612d6b81612d2f565b9050919050565b7f4e487b7100000000000000000000000000000000000000000000000000000000600052601160045260246000fd5b6000612dac82612317565b9150612db783612317565b9250827fffffffffffffffffffffffffffffffffffffffffffffffffffffffffffffffff03821115612dec57612deb612d72565b5b828201905092915050565b7f41756374696f6e2074696d6520686173206e6f7420656e646564207965740000600082015250565b6000612e2d601e83612267565b9150612e3882612df7565b602082019050919050565b60006020820190508181036000830152612e5c81612e20565b9050919050565b7f45524337323155524953746f726167653a2055524920717565727920666f722060008201527f6e6f6e6578697374656e7420746f6b656e000000000000000000000000000000602082015250565b6000612ebf603183612267565b9150612eca82612e63565b604082019050919050565b60006020820190508181036000830152612eee81612eb2565b9050919050565b600081905092915050565b6000612f0b8261225c565b612f158185612ef5565b9350612f25818560208601612278565b80840191505092915050565b6000612f3d8285612f00565b9150612f498284612f00565b91508190509392505050565b7f4552433732313a206f70657261746f7220717565727920666f72206e6f6e657860008201527f697374656e7420746f6b656e0000000000000000000000000000000000000000602082015250565b6000612fb1602c83612267565b9150612fbc82612f55565b604082019050919050565b60006020820190508181036000830152612fe081612fa4565b9050919050565b7f4552433732313a207472616e73666572206f6620746f6b656e2074686174206960008201527f73206e6f74206f776e0000000000000000000000000000000000000000000000602082015250565b6000613043602983612267565b915061304e82612fe7565b604082019050919050565b6000602082019050818103600083015261307281613036565b9050919050565b7f4552433732313a207472616e7366657220746f20746865207a65726f2061646460008201527f7265737300000000000000000000000000000000000000000000000000000000602082015250565b60006130d5602483612267565b91506130e082613079565b604082019050919050565b60006020820190508181036000830152613104816130c8565b9050919050565b600061311682612317565b915061312183612317565b92508282101561313457613133612d72565b5b828203905092915050565b7f4552433732313a206d696e7420746f20746865207a65726f2061646472657373600082015250565b6000613175602083612267565b91506131808261313f565b602082019050919050565b600060208201905081810360008301526131a481613168565b9050919050565b7f4552433732313a20746f6b656e20616c7265616479206d696e74656400000000600082015250565b60006131e1601c83612267565b91506131ec826131ab565b602082019050919050565b60006020820190508181036000830152613210816131d4565b9050919050565b7f45524337323155524953746f726167653a2055524920736574206f66206e6f6e60008201527f6578697374656e7420746f6b656e000000000000000000000000000000000000602082015250565b6000613273602e83612267565b915061327e82613217565b604082019050919050565b600060208201905081810360008301526132a281613266565b9050919050565b7f4552433732313a207472616e7366657220746f206e6f6e20455243373231526560008201527f63656976657220696d706c656d656e7465720000000000000000000000000000602082015250565b6000613305603283612267565b9150613310826132a9565b604082019050919050565b60006020820190508181036000830152613334816132f8565b9050919050565b7f4552433732314d657461646174613a2055524920717565727920666f72206e6f60008201527f6e6578697374656e7420746f6b656e0000000000000000000000000000000000602082015250565b6000613397602f83612267565b91506133a28261333b565b604082019050919050565b600060208201905081810360008301526133c68161338a565b9050919050565b600081519050919050565b600082825260208201905092915050565b60006133f4826133cd565b6133fe81856133d8565b935061340e818560208601612278565b613417816122ab565b840191505092915050565b600060808201905061343760008301876123ac565b61344460208301866123ac565b6134516040830185612613565b818103606083015261346381846133e9565b905095945050505050565b60008151905061347d816121cd565b92915050565b60006020828403121561349957613498612197565b5b60006134a78482850161346e565b91505092915050565b60006134bb82612317565b91507fffffffffffffffffffffffffffffffffffffffffffffffffffffffffffffffff8214156134ee576134ed612d72565b5b600182019050919050565b7f4e487b7100000000000000000000000000000000000000000000000000000000600052601260045260246000fd5b600061353382612317565b915061353e83612317565b92508261354e5761354d6134f9565b5b828204905092915050565b600061356482612317565b915061356f83612317565b92508261357f5761357e6134f9565b5b828206905092915050565b7f4e487b7100000000000000000000000000000000000000000000000000000000600052603260045260246000fdfea26469706673582212200395ae3a7da2ee4e9880a26c0028efbaab982d9131b0cbc8472cfbf802be629e64736f6c63430008090033",
  "immutableReferences": {},
  "source": "// SPDX-License-Identifier: GPL-3.0\r\n\r\npragma solidity ^0.8.0;\r\n\r\nimport \"@openzeppelin/contracts/token/ERC721/extensions/ERC721URIStorage.sol\";\r\nimport \"@openzeppelin/contracts/utils/Counters.sol\";\r\n\r\ncontract Funoken is ERC721URIStorage {\r\n    using Counters for Counters.Counter;\r\n    Counters.Counter private _tokenIds;\r\n    \r\n    struct TokenBid{\r\n        bool forSale;\r\n        bool beenBid;\r\n        uint256 highestBid;\r\n        address highestBidder;\r\n        uint auctionStart;\r\n    }\r\n    TokenBid newBid;\r\n     \r\n    mapping (uint256 => TokenBid) public idToBid;\r\n    \r\n    modifier upForSale (uint256 _itemId) {\r\n        require(idToBid[_itemId].forSale);\r\n        _;\r\n    }\r\n    modifier onlyOwner (uint256 _itemId){\r\n        require(msg.sender == ownerOf(_itemId));\r\n        _;\r\n    }\r\n    \r\n    constructor() ERC721(\"Funoken\", \"FTK\") {}\r\n    \r\n    function mintToken(string memory tokenURI) external returns (uint256) {\r\n        _tokenIds.increment();\r\n        uint256 newItemId = _tokenIds.current();\r\n        _mint(msg.sender, newItemId);\r\n        _setTokenURI(newItemId, tokenURI);\r\n        newBid = TokenBid(false, false, 0, address(0), 0);\r\n        idToBid[newItemId] = newBid;\r\n        return newItemId;\r\n    }\r\n    \r\n    function auction(uint256 itemId, uint256 amount) external onlyOwner(itemId) {\r\n        idToBid[itemId].forSale = true;\r\n        idToBid[itemId].highestBid = amount;\r\n        idToBid[itemId].auctionStart = block.timestamp;\r\n    }\r\n    \r\n    function bid(uint256 itemId) external payable upForSale(itemId){\r\n        require(msg.value> idToBid[itemId].highestBid, \"Bid must be higher\"); \r\n        require(msg.sender != ownerOf(itemId));\r\n        \r\n        if(idToBid[itemId].beenBid){\r\n            payable(idToBid[itemId].highestBidder).transfer(idToBid[itemId].highestBid);\r\n        }\r\n        idToBid[itemId].highestBid = msg.value;\r\n        idToBid[itemId].highestBidder = msg.sender;\r\n        idToBid[itemId].beenBid = true;\r\n    }\r\n    \r\n    function endAuction(uint256 itemId) external upForSale(itemId){\r\n        require(block.timestamp > idToBid[itemId].auctionStart + 86400 seconds, \"Auction time has not ended yet\");\r\n        \r\n        if (idToBid[itemId].beenBid){\r\n            payable(ownerOf(itemId)).transfer(idToBid[itemId].highestBid);\r\n            transferFrom(ownerOf(itemId), idToBid[itemId].highestBidder, itemId);\r\n        }\r\n        idToBid[itemId].forSale = false;\r\n        idToBid[itemId].beenBid = false;\r\n        idToBid[itemId].highestBid = 0;\r\n        idToBid[itemId].highestBidder = address(0);    \r\n        idToBid[itemId].auctionStart = 0;\r\n    }\r\n}",
  "sourcePath": "D:\\Projects\\Funoken\\contracts\\Funoken.sol",
  "compiler": {
    "name": "solc",
    "version": "0.8.9+commit.e5eed63a.Emscripten.clang"
  },
  "schemaVersion": "3.4.3",
  "updatedAt": "2021-10-29T09:28:57.881Z",
  "devdoc": {
    "kind": "dev",
    "methods": {
      "approve(address,uint256)": {
        "details": "See {IERC721-approve}."
      },
      "balanceOf(address)": {
        "details": "See {IERC721-balanceOf}."
      },
      "getApproved(uint256)": {
        "details": "See {IERC721-getApproved}."
      },
      "isApprovedForAll(address,address)": {
        "details": "See {IERC721-isApprovedForAll}."
      },
      "name()": {
        "details": "See {IERC721Metadata-name}."
      },
      "ownerOf(uint256)": {
        "details": "See {IERC721-ownerOf}."
      },
      "safeTransferFrom(address,address,uint256)": {
        "details": "See {IERC721-safeTransferFrom}."
      },
      "safeTransferFrom(address,address,uint256,bytes)": {
        "details": "See {IERC721-safeTransferFrom}."
      },
      "setApprovalForAll(address,bool)": {
        "details": "See {IERC721-setApprovalForAll}."
      },
      "supportsInterface(bytes4)": {
        "details": "See {IERC165-supportsInterface}."
      },
      "symbol()": {
        "details": "See {IERC721Metadata-symbol}."
      },
      "tokenURI(uint256)": {
        "details": "See {IERC721Metadata-tokenURI}."
      },
      "transferFrom(address,address,uint256)": {
        "details": "See {IERC721-transferFrom}."
      }
    },
    "version": 1
  },
  "userdoc": {
    "kind": "user",
    "methods": {},
    "version": 1
  }
}